:03000000021110DA
:0C111000787FE4F6D8FD758107021157C6
:10130700D3EF9400EE9400400F7D267C82DCFEDD57
:08131700FAEF1F70EB1E80E8E5
:01131F0022AB
:10119C009353FBFDFEFEFFFFFFFFFFFFFFFFFFFF73
:1011AC00FFFEFEFDFB9366B6DB92ED24496376866B
:1011BC00928676634924ED92DBB6A0262A01A4031D
:1011CC004804EC0690083409D80B7C0D200EC41092
:1011DC00680EC40D200B7C09D80834069004EC036F
:1011EC004801A4A026000000000000000000000040
:1011FC0000000000000000000000000000000000E3
:10120C0000000000000000000000000082510000FF
:03121C00815000FE
:10133600438901758CFDE4F58AD2B9D2A9D2AFC230
:02134600A022E3
:10080000787FE2FC08E2FD08E2FE08E2FF782612AB
:10081000104A787974FDF2E408F27B40FAF9F8C0E6
:10082000007826E2FC08E2FD08E2FE08E2FFD000C4
:10083000120F99E47B02FAF9F8120F0E7851EEF2DA
:1008400008EFF218E2FC08E2FDE4120E427BCD7ADA
:10085000CC794C783E120D37120E7B7800EEF20800
:10086000EFF27851E2FC08E2FDE4120E427BCD7A11
:10087000CC79CC783E120D37C004C005C006C00745
:100880007800E2FC08E2FDE4120E42D003D002D070
:1008900001D000120C46120E7B7802EEF208EFF245
:1008A0007851E2FC08E2FDE4120E427B9A7A9979D3
:1008B00019783F120D37C004C005C006C007780282
:1008C000E2FC08E2FDE4120E42D003D002D001D0D7
:1008D00000120C46120E7B7804EEF208EFF278510B
:1008E000E2FC08E2FDE4120E427BCD7ACC794C7832
:1008F0003F120D37C004C005C006C0077804E2FCF3
:1009000008E2FDE4120E42D003D002D001D0001262
:100910000C46120E7B7806EEF208EFF27851E2FCFC
:1009200008E2FD7807E22D7909F318E23C19F3E4B7
:10093000120E427B9A7A997999783F120D37C0044A
:10094000C005C006C0077808E2FC08E2FDE4120E0C
:1009500042D003D002D001D000120C46120E7B7898
:100960000AEEF208EFF27851E2FC08E2FDE4120E22
:10097000427B337A3379B3783F120D37C004C00518
:10098000C006C007780AE2FC08E2FDE4120E42D07D
:1009900003D002D001D000120C46120E7B780CEE70
:1009A000F208EFF27851E2FC08E2FDE4120E427B1D
:1009B000CD7ACC79CC783F120D37C004C005C00683
:1009C000C007780CE2FC08E2FDE4120E42D003D02E
:1009D00002D001D000120C46120E7B780EEEF20807
:1009E000EFF27851E2FC08E2FDE4120E427B667AF7
:1009F0006679E6783F120D37C004C005C006C0070F
:100A0000780EE2FC08E2FDE4120E42D003D002D0E0
:100A100001D000120C46120E7B7810EEF208EFF2B5
:100A20007851E2FA08E2FB7C007D37FFAE02120E3D
:100A3000FC7812EEF208EFF2AD03AC02E4120E42C3
:100A40007B667A6679E6783F120D37C004C005C030
:100A500006C0077812E2FC08E2FDE4120E42D00361
:100A6000D002D001D000120C46120E7B7814EEF2A8
:100A700008EFF27851E2FC08E2FDE4120E427BCD71
:100A80007ACC79CC783F120D37C004C005C006C0BF
:100A9000077814E2FC08E2FDE4120E42D003D00213
:100AA000D001D000120C46120E7B7816EEF208EF41
:100AB000F27851E2FC08E2FDE4120E427B337A3315
:100AC00079B3783F120D37C004C005C006C007785F
:100AD00016E2FC08E2FDE4120E42D003D002D0017F
:100AE000D000120C46120E7B7818EEF208EFF27866
:100AF00051E2FC08E2FDE4120E427B9A7A99799960
:100B0000783F120D37C004C005C006C0077818E250
:100B1000FC08E2FDE4120E42D003D002D001D00066
:100B2000120C46120E7B781AEEF208EFF27851E2C0
:100B3000FC08E2FD781BE22D791DF318E23C19F365
:100B4000E4120E427BCD7ACC794C783F120D37C03F
:100B500004C005C006C007781CE2FC08E2FDE412F0
:100B60000E42D003D002D001D000120C46120E7BF0
:100B7000781EEEF208EFF27851E2FC08E2FDE41292
:100B80000E427B9A7A997919783F120D37C004C0CA
:100B900005C006C007781EE2FC08E2FDE4120E4222
:100BA000D003D002D001D000120C46120E7B782068
:100BB000EEF208EFF27851E2FC08E2FDE4120E4298
:100BC0007BCD7ACC79CC783E120D37C004C005C0FD
:100BD00006C0077820E2FC08E2FDE4120E42D003D2
:100BE000D002D001D000120C46120E7B7822EEF219
:100BF00008EFF27851E2FC08E2FDE4120E427BCDF0
:100C00007ACC794C783E120D37C004C005C006C0BE
:100C1000077822E2FC08E2FDE4120E42D003D00283
:100C2000D001D000120C46120E7B7824EEF208EFB1
:0F0C3000F2780008E2F5993099FDC299D28C2232
:1012CE00EF25E02400F8E2FE08E2FFE4FCFD787B67
:1012DE00E2FB08E2F908E2FA08E2CBF8C312103991
:1012EE0040167850E204F2E2FF2453F8E27879F2E5
:0912FE0074662FF8E2787AF222FE
:03000B0002106F71
:10106F00C0E0C0F0C083C082C0D075D000C000C047
:10107F0001C002C003C004C005C006C007B2A078FB
:10108F0050E2FFC3940C50051212CE80347850E218
:10109F00B40C2E25E02400F8E2FE08E2FFE4FCFD8C
:1010AF00787BE2FB08E2F908E2FA08E2CBF8C31218
:1010BF001039400DC2A0787B12105600000000C2FC
:1010CF008C7879E2F58C08E2F58A08E2FC08E2FDFB
:1010DF0008E2FE08E22401FFE43EFEE43DFDE43CAD
:1010EF00FC787B12104AD007D006D005D004D0036D
:1010FF00D002D001D000D0D0D082D083D0F0D0E0B9
:01110F0032AD
:06121F00847F00000000C6
:10132000759850438920E4F587758DFA758BFAD24C
:06133000ACD2AFD28E2208
:03002300021226A0
:10122600C0E0C0F0C083C082C0D075D000C000C08E
:0D12360001C002C003C004C005C006C0070F
:101243007883E599F2E2FBE4FAF9F87FA07E8CFD5E
:10125300FC12128A787F12104A7850E4F2120800C6
:0C126300C2987883E2F5993099FDC29999
:10126F00D007D006D005D004D003D002D001D000D3
:0B127F00D0D0D082D083D0F0D0E0327D
:0F1348001213361213207F017E0012130780F755
:100C3F00020EE7E86480F8E933E83360110460F0EE
:100C4F00ED33EC337009E8FCE9FDEAFEEBFF22041B
:100C5F0060DED3EB9FEA9EE99DE8C2E78CF0C2F716
:100C6F0095F0400CE8CCF8E9CDF9EACEFAEBCFFBE2
:100C7F00120EB285D0F05804700320D5B3E804707B
:100C8F00075002B2D5020EF192D5EC0460F7E4CC16
:100C9F00C0E0C398F8603B94186008400DD0E0FBAB
:100CAF00020EC9E4FBFAC9FC8028E830E406E4C967
:100CBF00FBE4CAFCE830E305E4C9CACBFCE85407FF
:100CCF006010F8C3E913F9EA13FAEB13FBEC13FC0A
:100CDF00D8F130F52FC3E49CFCEF9BFFEE9AFEEDAD
:100CEF0099FDD0E0FBEF4E4D4C701222DB03020E4C
:100CFF00EEEC2CFCEF33FFEE33FEED33FDED30E782
:100D0F00EB020EC9EF2BFFEE3AFEED39FDD0E0FB03
:100D1F0050130BBB0003020EF1ED13FDEE13FEEFAC
:080D2F0013FFEC13FC020EC9D6
:100D3700EC4D6011E8497017ED33EC3304600DE4B6
:100D4700FCFFFEFD22E933E8330470F8020EE712D8
:100D57000EB258046009E4CC2481500628500902D9
:100D67000EF1284003020EEEC0E0EB4A7044B98052
:100D770006D0E0FB020EDDEF4E701CBD8008EBFFD6
:100D8700EAFEE9FD80EBE98DF0A4FEE5F0020E2016
:100D9700E9CDF9EAFEEBFFEF89F0A4FCE5F0CE8997
:100DA700F0A42EFFE435F0CD89F0A42DFEE435F054
:100DB7008067EF4E7005BD80D780C3EF8BF0A4AC82
:100DC700F0EE8BF0A42CFCE435F0F8EF8AF0A42CBD
:100DD700E5F038FCE433CB8DF0A42CFCE5F03BF8D0
:100DE700EE8AF0A42CFCE5F038F8E433CF89F0A4C0
:100DF7002CFCE5F038CF3400CE89F0A42FFFE5F0C6
:100E07003EFEE433C98DF0A42EFEE5F039CD8AF01D
:100E1700A42FFFE5F03EFEE43DFD33D0E0FB500795
:100E27000BBB000F020EF1EC2CFCEF33FFEE33FE91
:060E3700ED33FD020EC9BF
:100E3D0075F020800E75F010800575F0087D007E30
:100E4D00007F003392D530D50312102BEC334010B8
:100E5D00EF33FFEE33FEED33FDEC33FCD5F0ED2239
:0E0E6D00E5F0247EA2D513CC92E7CDCEFF2275
:100E7B00EDD2E7CD33EC3392D524814006E4FFFE6F
:100E8B00FDFC22FCE4CFCECDCC24E0501174FF80CE
:100E9B00EDC3CC13CCCD13CDCE13CECF13CF04706B
:070EAB00F030D5DE02102B30
:100EB200E9D2E7C933E833F892D5EDD2E7CD33EC86
:070EC20033FC5002B2D522FF
:100EC900EC30E7100FBF000C0EBE00080DBD00048A
:100ED9000BEB6014A2D5EB13FCED92E7FD2274FF36
:100EE900FCFDFEFF22E480F8A2D574FF13FC7D808F
:030EF900E480EFA3
:10111C00021348E493A3F8E493A34003F68001F28E
:10112C0008DFF48029E493A3F85407240CC8C333D4
:10113C00C4540F4420C8834004F456800146F6DFA3
:10114C00E4800B010204081020408090119CE47E86
:10115C00019360BCA3FF543F30E509541FFEE49398
:10116C00A360010ECF54C025E060A840B8E493A35F
:10117C00FAE493A3F8E493A3C8C582C8CAC583CA8A
:10118C00F0A3C8C582C8CAC583CADFE9DEE780BE42
:0112250000C8
:100EFC00EF8DF0A4A8F0CF8CF0A428CE8DF0A42E0A
:020F0C00FE22C3
:100F0E00E88FF0A4CC8BF0A42CFCE98EF0A42CFC82
:100F1E008AF0EDA42CFCEA8EF0A4CDA8F08BF0A400
:100F2E002DCC3825F0FDE98FF0A42CCD35F0FCEB5F
:100F3E008EF0A4FEA9F0EB8FF0A4CFC5F02ECD3924
:0F0F4E00FEE43CFCEAA42DCE35F0FDE43CFC2291
:100F5D0075F008758200EF2FFFEE33FECD33CDCC4B
:100F6D0033CCC58233C5829BED9AEC99E5829840CE
:100F7D000CF582EE9BFEED9AFDEC99FC0FD5F0D6AB
:100F8D00E4CEFBE4CDFAE4CCF9A88222B800C1B9D5
:100F9D000059BA002DEC8BF084CFCECDFCE5F0CB13
:100FAD00F97818EF2FFFEE33FEED33FDEC33FCEB4C
:100FBD0033FB10D703994004EB99FB0FD8E5E4F907
:100FCD00FA227818EF2FFFEE33FEED33FDEC33FCF4
:100FDD00C933C910D7059BE99A4007EC9BFCE99AE8
:100FED00F90FD8E0E4C9FAE4CCFB2275F010EF2F2D
:100FFD00FFEE33FEED33FDCC33CCC833C810D7072D
:10100D009BEC9AE899400AED9BFDEC9AFCE899F867
:0E101D000FD5F0DAE4CDFBE4CCFAE4C8F922FA
:10128A00C2D5E830E70FB2D5E4C39BFBE49AFAE48F
:10129A0099F9E498F8EC30E717B2D51212C0120F98
:1012AA0099E4C39BFBE49AFAE499F9E498F8800379
:1012BA00120F9930D50DE4C39FFFE49EFEE49DFD15
:0412CA00E49CFC2282
:0E102B00C3E49FFFE49EFEE49DFDE49CFC22D6
:10103900EB9FF5F0EA9E42F0E99D42F0E89C45F00D
:011049002284
:0C104A00ECF208EDF208EEF208EFF222E2
:10105600D083D082E493F208740193F20874029369
:09106600F208740393F2740473A0
:00000001FF
